:020000040800F2
:10000000680A002089010008B1030008AD03000858
:10001000AF030008430200080909000800000000BF
:10002000000000000000000000000000B50700080C
:100030004502000800000000970700088908000832
:10004000A3010008A3010008A3010008A301000800
:10005000A3010008A3010008A3010008A3010008F0
:10006000A3010008A3010008A3010008A3010008E0
:10007000A3010008A3010008A3010008A3010008D0
:10008000A3010008A3010008A3010008A3010008C0
:10009000A3010008A3010008A3010008A3010008B0
:1000A000A3010008A3010008A3010008A3010008A0
:1000B000A3010008A3010008A3010008A301000890
:1000C000A3010008A3010008A3010008A301000880
:1000D000A3010008A3010008A3010008A301000870
:1000E000A3010008A3010008A301000800F002F822
:1000F00000F03AF80AA090E8000C82448344AAF188
:100100000107DA4501D100F02FF8AFF2090EBAE885
:100110000F0013F0010F18BFFB1A43F0010318473B
:1001200098100000B8100000103A24BF78C878C1B9
:10013000FAD8520724BF30C830C144BF04680C60ED
:10014000704700000023002400250026103A28BF35
:1001500078C1FBD8520728BF30C148BF0B60704739
:100160001FB51FBD10B510BD00F036F81146FFF7E2
:10017000F7FF00F0E5FB00F054F803B4FFF7F2FFDF
:1001800003BC00F057F800000948804709480047C1
:10019000FEE7FEE7FEE7FEE7FEE7FEE7FEE7FEE737
:1001A000FEE7FEE704480549054A064B7047000094
:1001B000B9080008ED00000868040020680A002063
:1001C00068060020680600207047704770470000EE
:1001D00000487047040400207546FFF7F9FFAE465B
:1001E00005006946534620F00700854618B020B543
:1001F000FFF7D8FFBDE820404FF000064FF00007A2
:100200004FF000084FF0000B21F00701AC46ACE8BE
:10021000C009ACE8C009ACE8C009ACE8C0098D462B
:10022000704710B50446AFF300802046BDE810408B
:10023000FFF7A3BF01491820ABBEFEE7260002006E
:100240007047FEE770472DE9F0410022CC7804F0BA
:100250000F03E40601D58C7823430C784FF00F0789
:1002600014F0FF0F4FF0010C1CD005680CFA02F4DB
:100270000E882640A64211D1960007FA06F825EA14
:10028000080503FA06F848EA0505CE78282E02D0BC
:10029000482E02D002E0446100E00461521C082AAA
:1002A000E4D305600A88FF2A1ED94568002202F1BE
:1002B00008060CFA06F40E882640A64210D19600D5
:1002C00007FA06F825EA080503FA06F848EA0505DC
:1002D000CE78282E00D14461CE78482E00D104611A
:1002E000521C082AE3D34560BDE8F08101617047E4
:1002F000002A01D0016170474161704738B5012182
:10030000042000F049FA48208DF803000420ADF8DD
:10031000000003248DF802400A4D69462846FFF785
:1003200092FF10218DF803102021ADF800108DF8F8
:10033000024069462846FFF786FF20212846FFF73E
:10034000D5FF38BD000801402DE9F0410024164ECC
:100350000027C6F89471D6F808010028FBD10025C3
:100360004FF00108C6F894810A2000F0CFFA64002B
:10037000D6F8080100B1641CC6F894710A2000F098
:10038000C5FA6D1CEDB2182DECD3C6F894810A2085
:1003900000F0BCFAC6F894710A2000F0B7FA84F4B1
:1003A0000000BDE8F081000000002142FEE7FEE70A
:1003B0007047000010B50021074C0022002004EB1C
:1003C000C1131A54401CC0B28028FAD3491CC9B2C8
:1003D0000829F3D310BD0000040000202DE9F041EE
:1003E000CF1823E0044686181CE07F2C18D800297B
:1003F00016DB3F2914DCCB1701EB5373DD104FEAFA
:10040000C51C0C4D23F007036544A1EB030815F848
:1004100004C0012303FA08F32CEA030C05F804C016
:10042000641C24B2A642E0DC491C09B28F42D9DC2C
:10043000BDE8F0810400002008B500214FF47A7275
:100440000020401C9042FCD3491C9142F8D301216A
:10045000082000F0A1F914208DF8030003208DF886
:1004600002008003ADF8000069460548FFF7EBFE87
:10047000012000F057F9012000F05CF908BD0000F0
:10048000000C014070B505460024802626FA04F0D1
:10049000284000D0012000F04DF9012000F042F981
:1004A000002000F03FF9641CE4B2082CEED30120D8
:1004B00000F038F9BDE87040002000F033B910B505
:1004C000012000F037F9012000F02CF9002000F0A5
:1004D00031F9BDE81040002000F024B910B500202B
:1004E00000F028F9012000F01DF9BDE810400120BE
:1004F00000F020B910B5FFF79FFFAE2000F022F901
:10050000D52000F01FF9802000F01CF9A82000F091
:1005100019F93F2000F016F9D32000F013F900205C
:1005200000F010F9402000F00DF9A12000F00AF9C8
:10053000C82000F007F9DA2000F004F9122000F0DA
:1005400001F9812000F0FEF8CF2000F0FBF8D9205F
:1005500000F0F8F8F12000F0F5F8DB2000F0F2F8F8
:10056000302000F0EFF8A42000F0ECF8A62000F016
:10057000E9F88D2000F0E6F8142000F0E3F8AF2051
:1005800000F0E0F8FFF716FFBDE8104000F0B6B845
:100590000346012000E05843491E4A1CFBD1704726
:1005A00010B50C4640F0B00000F0CCF8102040EA46
:1005B000141000F0C7F804F00F00BDE8104000F080
:1005C000C1B8000008B5203A082B0CD0062B09D181
:1005D000094B02EB420203EB42020092082306227F
:1005E00000F00EF808BD054B03EB02120092102339
:1005F000082200F005F808BD7C0F00088C090008EF
:100600002DE9FF4F0F46DDF8349090461D4600243B
:100610002B46424639460098FFF7E0FE6D1EE8176C
:1006200005EB50700121DFF888C001EBE00A3BE0E8
:10063000002035E000990D187F2D2FD8F91707EB12
:100640005171CA1016B221F007017B1A002F03DA8C
:10065000761E36B208331BB2311907290DD804FBB8
:1006600008FB09EB000E0CEBC1121BF80EB0565D37
:100670000BFA03FB46EA0B065655491C07290DD811
:1006800004FB08F609EB000B0CEBC11116F80B602C
:100690004A5DC3F10803DE4032434A55401CC0B2F4
:1006A0004045C7D3641CE4B2A245C1DCBDE8FF8F5E
:1006B000040000202DE9F04F8046DDF824A08B4691
:1006C00091461F4600240A2514E0391B491E0A20C2
:1006D000FFF75EFFB9FBF0F6B6FBF5F005FB106225
:1006E00004FB0A80303200B253465946FFF76AFFD6
:1006F000641CE4B2BC42E8D3BDE8F08F70B50024BE
:10070000074D00212046FFF74BFF05EBC410802169
:1007100000F029F8641CE4B2082CF2D370BD00008C
:100720000400002002464FF480410148FFF7E0BD7D
:10073000000C014002464FF400410148FFF7D8BDCC
:10074000000C014010B50446FFF7B9FE7820FFF712
:1007500099FE0020FFF796FE2046FFF793FEBDE8C6
:100760001040FFF7BBBE70B505460E46FFF7A7FE6B
:100770007820FFF787FE4020FFF784FE002404E086
:10078000285DFFF77FFE641CE4B2B442F8D3BDE8F5
:100790007040FFF7A3BE7047054A002903D0916956
:1007A00001439161704791698143916170470000F5
:1007B00000100240704700F001B800000CB50022A4
:1007C000019200922748016841F4803101604FF4A2
:1007D000A063016801F4003100910199491C019165
:1007E000009911B901999942F3D10168890302D5A1
:1007F0000121009100E000920099012930D11A49AD
:100800000A6842F010020A600A6822F003020A60D5
:100810000A6842F002020A60416841604168416032
:10082000416841F480614160416821F47C1141607C
:10083000416841F4E8114160016841F08071016054
:1008400001688901FCD5416821F0030141604168DC
:1008500041F0020141604168C1F381010229FAD1EE
:100860000CBD000000100240002002404FF0E021CB
:10087000042804D0086920F0040008617047086962
:1008800040F00400086170477047000010B504464E
:100890006FF00400FFF7EAFF0649E008087000EB7C
:1008A0004002C2EBC0104FF6FF7202EAC00048805F
:1008B00010BD00000000002010B50F48016841F095
:1008C0000101016041680D4A1140416001680C4A14
:1008D00011400160016821F480210160416821F428
:1008E000FE0141604FF41F018160FFF764FF05497D
:1008F0004FF00060086010BD001002400000FFF8DB
:10090000FFFFF6FE08ED00E0FEE700000B49097866
:1009100048434FF0E021486100238B61086940F0B3
:10092000010008610869C20701D0C003FAD508694F
:1009300020F0010008618B6170470000000000207A
:1009400008B54820FFF7A2FFFFF7D8FCFFF7D2FD5C
:10095000002208240021234608460094FFF7AAFE3F
:1009600008233F2200214020FFF72CFEFFF7C6FEA0
:100970006425FFF7E9FCB0FBF5F2002108230846E7
:100980000094FFF797FEFFF7B9FEF2E700000000C2
:10099000000000000000000000000000000000F85F
:1009A00000000000000000333000000000160E00C0
:1009B000160E0000000000000000000040C078405B
:1009C000C0784000043F04043F040400007088FC29
:1009D00008300000001820FF211E0000F008F00081
:1009E000E018000000211C031E211E0000F00888F2
:1009F000700000001E21232419272110000000167A
:100A00000E0000000000000000000000000000E0F8
:100A1000180402000000000718204000000204181B
:100A2000E00000000040201807000000404080F077
:100A3000804040000202010F01020200000000F0AD
:100A4000000000000101011F010101000000000081
:100A50000000000000B07000000000000000000076
:100A6000000000000001010101010101000000007F
:100A70000000000000303000000000000000000016
:100A800080601804006018060100000000E01008F3
:100A90000810E000000F102020100F00001010F8C8
:100AA000000000000020203F202000000070080807
:100AB0000888700000302824222130000030088887
:100AC000884830000018202020110E000000C020AF
:100AD00010F8000000070424243F240000F80888D0
:100AE000880808000019212020110E0000E010885D
:100AF00088180000000F112020110E00003808088F
:100B0000C83808000000003F00000000007088089E
:100B100008887000001C222121221C0000E010081F
:100B20000810E0000000312222110F00000000C078
:100B3000C00000000000003030000000000000C0D5
:100B4000C0000000000080B0700000000000804085
:100B5000201008000001020408102000404040401E
:100B60004040400004040404040404000008102071
:100B700040800000002010080402010000704808B6
:100B80000808F0000000003036010000C030C8281E
:100B9000E810E0000718272423140B000000C038D9
:100BA000E0000000203C23020227382008F8888853
:100BB00088700000203F202020110E00C03008085F
:100BC00008083800071820202010080008F8080836
:100BD0000810E000203F202020100F0008F888882F
:100BE000E8081000203F20202320180008F88888FB
:100BF000E8081000203F200003000000C030080873
:100C00000838000007182020221E020008F80800FB
:100C10000008F808203F210101213F20000808F8C2
:100C2000080800000020203F2020000000000808E5
:100C3000F8080800C08080807F00000008F888C0A5
:100C400028180800203F20012638200008F8080056
:100C500000000000203F20202020300008F8F8008D
:100C6000F8F80800203F003F003F200008F830C09F
:100C70000008F808203F200007183F00E01008088F
:100C80000810E0000F10202020100F0008F80808BE
:100C90000808F000203F210101010000E0100808D1
:100CA0000810E0000F18242438504F0008F88888F6
:100CB00088887000203F2000030C302000708808D6
:100CC000080838000038202121221C00180808F8E4
:100CD000080818000000203F2000000008F8080065
:100CE0000008F808001F202020201F000878880036
:100CF00000C83808000007380E010000F80800F8A6
:100D00000008F800033C0700073C0300081868804F
:100D10008068180820302C03032C30200838C800C5
:100D2000C83808000000203F200000001008080814
:100D3000C83808002038262120201800000000FEB6
:100D4000020202000000007F40404000000C30C062
:100D500000000000000000010638C000000202028E
:100D6000FE000000004040407F000000002010080E
:100D70000408102000000000000000000000000037
:100D80000000000080808080808080800002040855
:100D90000000000000000000000000000000808053
:100DA000808000000019242222223F2008F80080C1
:100DB00080000000003F112020110E000000008084
:100DC00080800000000E1120202011000000008013
:100DD0008088F800000E112020103F200000808045
:100DE00080800000001F222222221300008080F059
:100DF000888888180020203F202000000000808084
:100E000080808000006B94949493600008F80080C8
:100E100080800000203F210000203F200080989823
:100E2000000000000020203F202000000000008083
:100E30009898000000C08080807F000008F80000C3
:100E400080808000203F24022D302000000808F818
:100E5000000000000020203F2020000080808080D3
:100E600080808000203F20003F20003F00808000E5
:100E70008080000000203F2100203F200000808073
:100E800080800000001F202020201F008080008024
:100E90008000000080FFA12020110E0000000080D3
:100EA00080808000000E112020A0FF8080808000C4
:100EB0008080800020203F212000010000008080F1
:100EC000808080000033242424241900008080E0E6
:100ED000808000000000001F2020000080800000B3
:100EE00000808000001F202020103F208080800094
:100EF0000080808000010E300806010080800080A4
:100F0000008080800F300C030C300F0000808000C8
:100F1000808080000020312E0E31200080808000F3
:100F20000080808080818E701806010000808080A3
:100F3000808080000021302C222130000000000041
:100F4000807C020200000000003F404000000000E2
:100F5000FF00000000000000FF0000000002027C13
:100F6000800000000040403F000000000080404042
:100F7000800000800000000000010100000000006F
:100F800000000000002F0000000007000700001410
:100F90007F147F1400242A7F2A120023130864621E
:100FA00000364955225000000007000000001C22B6
:100FB0004100000041221C000014083E08140008F3
:100FC000083E0808000000A06000000808080808A3
:100FD000000060600000002010080402003E51493B
:100FE000453E0000427F40000042615149460021D9
:100FF00041454B31001814127F10002745454539F3
:10100000003C4A494930000171090503003649494D
:10101000493600064949291E000036360000000006
:101020005636000000081422410000141414141451
:10103000000041221408000201510906003E4955F2
:10104000592E007C1211127C007F49494936003E1E
:1010500041414122007F4141221C007F49494941D1
:10106000007F09090901003E4149497A007F0808CB
:10107000087F0000417F4100002040413F01007F88
:1010800008142241007F40404040007F020C027F54
:10109000007F0408107F003E4141413E007F090966
:1010A0000906003E4151215E007F0919294600468C
:1010B000494949310001017F0101003F4040403F63
:1010C000001F2040201F003F4038403F00631408AD
:1010D0001463000708700807006151494543000088
:1010E0007F414100000204081020000041417F00C0
:1010F00000040201020400404040404000000102A0
:101100000400002054545478007F48444438003888
:101110004444442000384444487F00385454541810
:1011200000087E0901020018A4A4A47C007F080422
:1011300004780000447D4000004080847D00007FF2
:10114000102844000000417F4000007C041804780F
:10115000007C0804047800384444443800FC24240B
:1011600024180018242418FC007C080404080048F3
:101170005454542000043F444020003C4040207C14
:10118000001C2040201C003C4030403C0044281003
:101190002844001CA0A0A07C004464544C440000DF
:1011A000087F41000000007F00000000417F080030
:1011B0000008040810080000D811000800000020F2
:1011C0000400000028010008DC11000804000020D1
:0C11D000640A0000440100080000000058
:04000005080000ED02
:00000001FF
